:0400000040EF00F0DD
:1000080000C015F0F2A413D0F2949C0ED66E1A4AD2
:100018001B2A1B501D1802E11C501A1808E1010E7A
:100028001626000E1722182219221A6A1B6A15C0F2
:0400380000F01100C3
:10003C000900F5CFE6FF0006FBE10106F9E112002D
:10004C001E5213E0E00E1C6E2E0E1D6E780E1C6EF2
:10005C00000E1D6E6B0E1C6E000E1D6EC80ED56E46
:10006C00F28EF28A9C0ED66E1E6A16C000F017C075
:04007C0001F012007D
:10008000DEEC00F0946A826A2B6AE0DF00C01FF0A9
:1000900001C020F0000E216E226E2B6AD7DF00C057
:1000A00023F001C024F0000E256E266E2B6ACEDFF1
:1000B00000C027F001C028F0000E296E2A6E010E44
:1000C0002B6EC4DF00C002F001C003F0000E046E0E
:1000D000056E1F50025E2050035A2150045A2250D0
:1000E000055A0550000808E10450000805E10350D6
:1000F000030802E10250E8080AE282702B6AA6DFD8
:1001000000C01FF001C020F0000E216E226E010E13
:100110002B6E9CDF00C002F001C003F0000E046EE5
:10012000056E2350025E2450035A2550045A26506F
:10013000055A0550000808E10450000805E1035085
:10014000050802E10250DC080AE282722B6A7EDFB7
:1001500000C023F001C024F0000E256E266E010EB3
:100160002B6E74DF00C002F001C003F0000E046EBD
:10017000056E2750025E2850035A2950045A2A500F
:10018000055A0550000808E10450000805E1035035
:10019000070802E10250D0080AE282742B6A56DF97
:1001A00000C027F001C028F0000E296E2A6E87D704
:0201B000FFD777
:1001BC0010EE16F0090E006E010E016EB20EF66E08
:0E01CC00010EF76E000EF86E1EEC00F0120031
:0401B2000000000049
:0201B600000047
:0201B800000045
:0101BA000143
:020000040030CA
:0E000000000E1F1EFF0181FF0FC00FE00F401A
:00000001FF
