:1000000036EF01F00000000000EF00F000000000FB
:0A0010000000000000000000F3D71C
:04001C0000001200CE
:10002000080E0C6E230E0D6E0D2EFED70C2EFCD777
:020030001200BC
:0C003200100E0D6E0D2EFED70000120007
:10003E0000019ABF02D0819601D081869ABD02D06E
:10004E00819401D081849ABB02D0819201D08182A9
:10005E009AB902D0819001D081802BB002D08188D4
:10006E0001D08198818AD3DF819A9AB702D0819686
:10007E0001D081869AB502D0819401D081849AB341
:10008E0002D0819201D081829AB102D0819001D0AA
:10009E0081802BB002D0818801D08198818AB7DF10
:0E00AE00819A2BA002D0B5DF01D0BCDF12007A
:0C00BC002B9099C09AF0BDDF2B80120041
:1000C80010D0800E0001946F1AD0C00E946F17D014
:1000D800940E946F14D0D40E946F11D0800E946F38
:1000E8000ED000019451010AECE09451020AEDE0AF
:1000F8009451030AEDE09451040AEDE0EFD7950519
:10010800006E9451002600C094F000C09AF093DF6E
:100118002B90986B98519625E96E000E9721EA6E00
:10012800EE520BE098519625E96E000E9721EA6E83
:0E013800EECF99F0BFDF982BEDD72B80120091
:0E014600ACB202D00000FCD794C0ADFF120096
:10015400939A93989390939293949396819A819877
:10016400819681948192819059DF58DF57DF818293
:100174008180818A51DF819A51DF818A4DDF819AA2
:100184004DDF818A49DF819A49DF8190818A44DF8A
:10019400819A44DF818A40DF819A81928186818AB3
:1001A4003BDF819A3BDF81968180818A35DF819AAA
:1001B4008190818A31DF819A31DF818A2DDF819AB2
:1001C4008180818A29DF819A29DF8190818A24DFD5
:1001D400819A8186818481828180818A1DDF819ACE
:0601E4001DDF2B8012005C
:1001EA000900F5CFE6FF0006FBE10106F9E112007E
:1001FA00460E276E010E286E940E296E000E2A6E88
:10020A00500E1B6E020E1C6E000E1D6E000E1E6E30
:10021A00620E1F6E020E206E000E216E000E226EFE
:10022A00FF0E236EFF0E246E000E256E000E266E44
:10023A00AC8A900EAB6E948E949C9EAA03D0AECFDD
:06024A0000F0FBD71200DA
:10025000AECF01F0ABA202D0AB98AB8801C000F0EA
:0202600012008A
:0A026200000E9EBA010E006E12009D
:10026C00680E156E650E166E6C0E176E6C0E186E93
:10027C006F0E196E1A6AFF0E926E936A816A64DFB2
:10028C00949C948E190EAF6EAC84B1DF820E0C6E02
:10029C00DD0E0D6E0D2EFED70C2EFCD700000000CF
:1002AC00190EAF6EAC84A3DF330E0B6EBB0E0C6E4F
:1002BC00DF0E0D6E0D2EFED70C2EFCD70B2EFAD7A3
:1002CC0000000000C8DF005256E00001906B916BFB
:1002DC00800E9119006E800E005C02E1640E905D40
:1002EC0023E22C0E9025926F000E9121936FAADFC2
:1002FC0092C0E1FF93C0E2FF00C0E6FF2C0E0001AC
:10030C00946F1BDF060E0B6E130E0C6EAD0E0D6E86
:10031C000D2EFED70C2EFCD70B2EFAD700000000AA
:10032C000001904B912BD4D7906B916B800E91194F
:10033C00006E800E005C02E1640E905D1CE2010E0A
:10034C009A6F77DE010E946F956B150E966F000EFB
:10035C00976FB4DE330E0B6EBB0E0C6EDF0E0D6E94
:10036C000D2EFED70C2EFCD70B2EFAD7000000005A
:0A037C00904B912BDBD7A6D7FFD7DB
:020000040030CA
:0E000000000E1F1EFF8381FF0FC00FE00F4098
:00000001FF
