:10000000DCEF01F00000000000EF00F00000000055
:0A0010000000000000000000F3D71C
:10001C00C1C100F0C2C101F0010E0101C15F000EAF
:10002C00C25B0050011009E0020E0C6E4B0E0D6EFF
:0C003C000D2EFED70C2EFCD7EBD71200C7
:100048000134083609360450085E0550D8A0053C2E
:10005800095E003601360F0E0C6E0134083609367B
:10006800045000A006D0085E0550D8A0053C095EE3
:1000780005D008260550D8B0053C092600360136BB
:100088000C2EEBD700B006D0045008260550D8B087
:08009800053C092600001200DE
:1000A0000101BF6BC06BBF6BC06B800EC019006ECF
:1000B000800E6419005C02E16351BF5D17E2BDC1AF
:1000C000C1F1BEC1C2F1AADFBFC100F0C0C101F0E1
:1000D0000036009001360050BB25E96E0150BC216E
:1000E000EA6EEECF81FFBF4BC02BDFD7816A1200D3
:0E00F000ACB202D00000FCD7B9C1ADFF1200C7
:1000FE000450000A08E10550000A05E1FF0E006EEB
:10010E007F0E016E12000D6A096A086A0150001016
:10011E00D8B4000C015005180A6E0ABE0D1E0B6AEB
:10012E0005AE05D0041E051E042AD8B4052A01AE5C
:10013E0005D0001E011E002AD8B4012A0150051058
:10014E000A6E0ABE10D079DF0BB020D00DAE000CB7
:10015E00001E011E002AD8B4012A081E091E082AF4
:10016E00D8B4092A000C05AE0DD001BE07D001503F
:10017E00096E0050086E016A006AE8D7016A006ACB
:10018E00002A000C011E001E0B2ADDD7082AD8B447
:10019E00092A0450085CD8A4D9D70550095CD8A404
:1001AE00D5D7096A086A002AD8B4012A01AECED77B
:0601BE000000FF0C12001E
:1001C400650E0101BB6F010EBC6FB9C1BDF1BAC1AF
:1001D400BEF164DFB9C1C1F1BAC1C2F11DDF6F0E56
:1001E400BB6F010EBC6FB9C1BDF1BAC1BEF156DF20
:1001F400B9C1C1F1BAC1C2F10FDF590EBB6F010E13
:10020400BC6FB9C1BDF1BAC1BEF148DFB9C1C1F11A
:10021400BAC1C2F101DF590EBB6F010EBC6FB9C187
:10022400BDF1BAC1BEF13ADFB9C1C1F1BAC1C2F17F
:10023400F3DE3B0EBB6F010EBC6FB9C1BDF1BAC199
:10024400BEF12CDFB9C1C1F1BAC1C2F1E5DE450E80
:10025400BB6F010EBC6FB9C1BDF1BAC1BEF11EDFE7
:10026400B9C1C1F1BAC1C2F1D7DE4F0EBB6F010EE5
:10027400BC6FB9C1BDF1BAC1BEF110DFB9C1C1F1E2
:10028400BAC1C2F1C9DE3B0EBB6F010EBC6FB9C16E
:10029400BDF1BAC1BEF102DFB9C1C1F1BAC1C2F147
:1002A400BBDE830EBB6F010EBC6FB9C1BDF1BAC119
:1002B400BEF1F4DEB9C1C1F1BAC1C2F1ADDE590E6D
:1002C400BB6F010EBC6FB9C1BDF1BAC1BEF1E6DEB0
:1002D400B9C1C1F1BAC1C2F19FDE790EBB6F010E83
:1002E400BC6FB9C1BDF1BAC1BEF1D8DEB9C1C1F1AB
:0802F400BAC1C2F191DE120053
:1002FC00F00E0101A96F000EAA6FB90EAB6F010EC3
:10030C00AC6F9C0EAD6F030EAE6F000EAF6F000E98
:10031C00B06FAE0EA16F030EA26F000EA36F000E96
:10032C00A46FFF0EA56FFF0EA66F000EA76F000E39
:10033C00A86FAC8A900EAB6E948E949C9EAA03D040
:08034C00AECF00F0FBD7120058
:100354000900F5CFE6FF0006FBE10106F9E1120012
:100364000101B96BBA6B80B016D080B001D0FDD753
:1003740080A00CD00101B94BBA2B020E0C6E4B0EAF
:100384000D6E0D2EFED70C2EFCD7F2D7B9C100F09E
:08039400BAC101F012001200D1
:10039C00AECF01F0ABA202D0AB98AB8801C000F09D
:0203AC0012003D
:0A03AE00000E9EBA010E006E120050
:1003B800A6EC06F0FF0E926E936A816A949C948E66
:1003C800190EAF6EAC8496DF820E0C6EDD0E0D6ECC
:1003D8000D2EFED70C2EFCD700000000BFDF00C09A
:1003E800B1F101C0B2F1DFDF005228E00001796B02
:1003F8007A6B0101B56BB66B800EB619006E800E74
:1004080000017C19005C03E17B510101B55D16E236
:1004180001018D0EB525B76F010EB621B86FBADF91
:10042800B7C1E1FFB8C1E2FF00C0E6FF8D0E0101D0
:10043800B96F5ADE0101B54BB62BDED78D0E000120
:100448007925E96E010E7A21EA6EEE50000A03E082
:10045800794B7A2BF3D779C0B5F17AC0B6F10001A0
:10046800800E7C19006E800E0101B619005C03E154
:10047800B55100017B5D0CE38D0E0101B525E16EE0
:10048800010EB621E26E200EE66EB54BB62BE7D70D
:100498007BC004F07CC005F0B1C100F0B2C101F02E
:1004A8002ADE00C0B3F101C0B4F1000E00017A19D0
:1004B80002E1000E791906E1B3C1B9F1B4C1BAF18C
:1004C8007DDE81D30101B56BB66B800EB619006E67
:1004D800800E00017C19005C03E17B510101B55DD0
:1004E800D8B071D301018D0EB525B76F010EB621B5
:1004F800B86F3DD26F0EBB6F000EBC6FB3C1BDF1BC
:10050800B4C1BEF1C9DDB3C1C1F1B4C1C2F182DD6C
:1005180057D37D0EBB6F000EBC6FB3C1BDF1B4C124
:10052800BEF1BADDB3C1C1F1B4C1C2F173DD48D3C4
:100538009B0EBB6F000EBC6FB3C1BDF1B4C1BEF161
:10054800ABDDB3C1C1F1B4C1C2F164DD39D3790EF9
:10055800BB6F010EBC6FB3C1BDF1B4C1BEF19CDD70
:10056800B3C1C1F1B4C1C2F155DD2AD36F0EBB6F5F
:10057800010EBC6FB3C1BDF1B4C1BEF18DDDB3C115
:10058800C1F1B4C1C2F146DD1BD3A50EBB6F000E8D
:10059800BC6FB3C1BDF1B4C1BEF17EDDB3C1C1F161
:1005A800B4C1C2F137DD0CD3870EBB6F000EBC6F30
:1005B800B3C1BDF1B4C1BEF16FDDB3C1C1F1B4C106
:1005C800C2F128DDFDD2650EBB6F010EBC6FB3C151
:1005D800BDF1B4C1BEF160DDB3C1C1F1B4C1C2F1B6
:1005E80019DDEED2910EBB6F000EBC6FB3C1BDF129
:1005F800B4C1BEF151DDB3C1C1F1B4C1C2F10ADD6C
:10060800DFD2290EBB6F000EBC6FB3C1BDF1B4C100
:10061800BEF142DDB3C1C1F1B4C1C2F1FBDCD0D23D
:10062800330EBB6F000EBC6FB3C1BDF1B4C1BEF1D8
:1006380033DDB3C1C1F1B4C1C2F1ECDCC1D2590E92
:10064800BB6F010EBC6FB3C1BDF1B4C1BEF124DDF7
:10065800B3C1C1F1B4C1C2F1DDDCB2D2150EBB6FBA
:10066800000EBC6FB3C1BDF1B4C1BEF115DDB3C19D
:10067800C1F1B4C1C2F1CEDCA3D21F0EBB6F000E14
:10068800BC6FB3C1BDF1B4C1BEF106DDB3C1C1F1E8
:10069800B4C1C2F1BFDC94D23B0EBB6F010EBC6F7C
:1006A800B3C1BDF1B4C1BEF1F7DCB3C1C1F1B4C18E
:1006B800C2F1B0DC85D23D0EBB6F000EBC6FB3C17A
:1006C800BDF1B4C1BEF1E8DCB3C1C1F1B4C1C2F13E
:1006D800A1DC76D25B0EBB6F000EBC6FB3C1BDF15F
:1006E800B4C1BEF1D9DCB3C1C1F1B4C1C2F192DC6D
:1006F80067D2830EBB6F010EBC6FB3C1BDF1B4C12D
:10070800BEF1CADCB3C1C1F1B4C1C2F183DC58D2B5
:10071800650EBB6F000EBC6FB3C1BDF1B4C1BEF1B5
:10072800BBDCB3C1C1F1B4C1C2F174DC49D2470E1C
:10073800BB6F000EBC6FB3C1BDF1B4C1BEF1ACDC80
:10074800B3C1C1F1B4C1C2F165DC3AD2510EBB6F7D
:10075800000EBC6FB3C1BDF1B4C1BEF19DDCB3C125
:10076800C1F1B4C1C2F156DC2BD2F50EBB6F000E3D
:10077800BC6FB3C1BDF1B4C1BEF18EDCB3C1C1F170
:10078800B4C1C2F147DC1CD24F0EBB6F010EBC6F67
:10079800B3C1BDF1B4C1BEF17FDCB3C1C1F1B4C115
:1007A800C2F138DC0DD2FF0EBB6F000EBC6FB3C1B7
:1007B800BDF1B4C1BEF170DCB3C1C1F1B4C1C2F1C5
:1007C80029DCFED1E10EBB6F000EBC6FB3C1BDF1D9
:1007D800B4C1BEF161DCB3C1C1F1B4C1C2F11ADC6C
:1007E800EFD1EB0EBB6F000EBC6FB3C1BDF1B4C14E
:1007F800BEF152DCB3C1C1F1B4C1C2F10BDCE0D12E
:10080800450EBB6F010EBC6FB3C1BDF1B4C1BEF1E3
:1008180043DCB3C1C1F1B4C1C2F10EEC00F0D0D1D8
:10082800090EBB6F010EBC6FB3C1BDF1B4C1BEF1FF
:1008380033DCB3C1C1F1B4C1C2F10EEC00F0C0D1D8
:10084800270EBB6F010EBC6FB3C1BDF1B4C1BEF1C1
:1008580023DCB3C1C1F1B4C1C2F10EEC00F0B0D1D8
:10086800310EBB6F010EBC6FB3C1BDF1B4C1BEF197
:1008780013DCB3C1C1F1B4C1C2F10EEC00F0A0D1D8
:10088800130EBB6F010EBC6FB3C1BDF1B4C1BEF195
:1008980003DCB3C1C1F1B4C1C2F10EEC00F090D1D8
:1008A8001D0EBB6F010EBC6FB3C1BDF1B4C1BEF16B
:1008B80050EC00F0B3C1C1F1B4C1C2F10EEC00F0CC
:1008C8007FD1C30EBB6F000EBC6FB3C1BDF1B4C105
:1008D800BEF150EC00F0B3C1C1F1B4C1C2F10EECED
:1008E80000F06ED1CD0EBB6F000EBC6FB3C1BDF171
:1008F800B4C1BEF150EC00F0B3C1C1F1B4C1C2F152
:100908000EEC00F05DD1AF0EBB6F000EBC6FB3C133
:10091800BDF1B4C1BEF150EC00F0B3C1C1F1B4C136
:10092800C2F10EEC00F04CD1B90EBB6F000EBC6FDB
:10093800B3C1BDF1B4C1BEF150EC00F0B3C1C1F117
:10094800B4C1C2F10EEC00F03BD1D70EBB6F000E64
:10095800BC6FB3C1BDF1B4C1BEF150EC00F0B3C17E
:10096800C1F1B4C1C2F10EEC00F02AD129D1B7C14E
:10097800E9FFB8C1EAFFEE50010AD8B4BBD5B7C148
:10098800E9FFB8C1EAFFEE50010AD8B4C2D5B7C131
:10099800E9FFB8C1EAFFEE50010AD8B4C9D5B7C11A
:1009A800E9FFB8C1EAFFEE50010AD8B4D0D5B7C103
:1009B800E9FFB8C1EAFFEE50010AD8B4D7D5B7C1EC
:1009C800E9FFB8C1EAFFEE50010AD8B4DED5B7C1D5
:1009D800E9FFB8C1EAFFEE50010AD8B4E5D5B7C1BE
:1009E800E9FFB8C1EAFFEE50010AD8B4ECD5B7C1A7
:1009F800E9FFB8C1EAFFEE50010AD8B4F3D5B7C190
:100A0800E9FFB8C1EAFFEE50010AD8B4FAD5B7C178
:100A1800E9FFB8C1EAFFEE50010AD8B401D6B7C160
:100A2800E9FFB8C1EAFFEE50010AD8B408D6B7C149
:100A3800E9FFB8C1EAFFEE50010AD8B40FD6B7C132
:100A4800E9FFB8C1EAFFEE50010AD8B416D6B7C11B
:100A5800E9FFB8C1EAFFEE50010AD8B41DD6B7C104
:100A6800E9FFB8C1EAFFEE50010AD8B424D6B7C1ED
:100A7800E9FFB8C1EAFFEE50010AD8B42BD6B7C1D6
:100A8800E9FFB8C1EAFFEE50010AD8B432D6B7C1BF
:100A9800E9FFB8C1EAFFEE50010AD8B439D6B7C1A8
:100AA800E9FFB8C1EAFFEE50010AD8B440D6B7C191
:100AB800E9FFB8C1EAFFEE50010AD8B447D6B7C17A
:100AC800E9FFB8C1EAFFEE50010AD8B44ED6B7C163
:100AD800E9FFB8C1EAFFEE50010AD8B455D6B7C14C
:100AE800E9FFB8C1EAFFEE50010AD8B45CD6B7C135
:100AF800E9FFB8C1EAFFEE50010AD8B463D6B7C11E
:100B0800E9FFB8C1EAFFEE50010AD8B46AD6B7C106
:100B1800E9FFB8C1EAFFEE50200AD8B471D6B7C1D0
:100B2800E9FFB8C1EAFFEE50300AD8B479D6B7C1A8
:100B3800E9FFB8C1EAFFEE50310AD8B481D6B7C18F
:100B4800E9FFB8C1EAFFEE50320AD8B489D6B7C176
:100B5800E9FFB8C1EAFFEE50330AD8B491D6B7C15D
:100B6800E9FFB8C1EAFFEE50340AD8B499D6B7C144
:100B7800E9FFB8C1EAFFEE50350AD8B4A2D6B7C12A
:100B8800E9FFB8C1EAFFEE50360AD8B4ABD6B7C110
:100B9800E9FFB8C1EAFFEE50370AD8B4B4D6B7C1F6
:100BA800E9FFB8C1EAFFEE50380AD8B4BDD6B7C1DC
:100BB800E9FFB8C1EAFFEE50390AD8B4C6D6D6D68E
:0C0BC800B54BB62B82D4F2EF01F0FFD742
:100D4C0010EE15F0780E006E020E016ED40EF66EDB
:0E0D5C000B0EF76E000EF86EAAEC01F01200FE
:0A0BD400FF00400020004000FF0079
:0A0BDE00FF00200008000200FF00E5
:0A0BE80083008100FE008000800001
:0A0BF200FF0028004400820001000B
:0A0BFC00FF009000900090006000E0
:0A0C060080008000FF0080008000E5
:0A0C1000FE00010001000100FE00DB
:0A0C1A007C008200860086007F0047
:0A0C240061009100910091008E0024
:0A0C2E007F009000900090007F000E
:020C38000000BA
:020C3A001400A4
:0A0C3C00FF009100910091006E008E
:0A0C46007E008100910091008E00F5
:0A0C500081008100FF008100810097
:0A0C5A007E0081008100810081000E
:0A0C6400FF00900090008000800067
:0A0C6E00800083008C00B000C0007D
:0A0C78006E009100910091006E00E3
:0A0C8200FA009100910091008E002D
:0A0C8C000E002900910011000E0077
:0A0C960060009000900090007F00C5
:0A0CA000800040003F00400080008B
:0A0CAA00810083008900A100810091
:0A0CB4008000100002001000800014
:0A0CBE0081002200080022008100DE
:0A0CC800FF00810081008100FF00A1
:0A0CD2008A009100B100D0008E00EE
:0A0CDC0008002800FF0008000800CF
:0A0CE60001004100FF0001000100C1
:0A0CF00047008900890091002100EF
:0A0CFA007E008100810081007E0071
:0A0D040000000000000000000000E5
:0A0D0E00FF00020004000200FF00D5
:0A0D1800FF000100010001000100CE
:020D22000500CA
:0A0D2400FF00100010001000FF0097
:0A0D2E00FF00910091009100910078
:0A0D3800FF008100810081007E00B1
:0A0D4200FF00980094009200610089
:020000040030CA
:0E000000000E1F1EFF8381FF0FC00FE00F4098
:00000001FF
