:1000000056EF00F00000000000EF00F000000000DC
:0A0010000000000000000000F3D71C
:10001C00AECF01F0ABA202D0AB98AB8801C000F020
:02002C001200C0
:0E002E00ACB202D00000FCD72CC0ADFF120017
:10003C000900F5CFE6FF0006FBE10106F9E112002D
:10004C002E0E246E000E256E2C0E266E000E276EC4
:10005C001C0E1D6E000E1E6E000E1F6E000E206E0E
:10006C00A20E156E000E166E000E176E000E186E98
:10007C00FF0E196EFF0E1A6E000E1B6E000E1C6E1C
:10008C00AC8A900EAB6E948E949C9EAA03D0AECF8D
:06009C0000F0FBD712008A
:0A00A200000E9EBA010E006E12005F
:1000AC00936A816A949C948EB886B06A850EAF6E02
:1000BC00AC84C6DF070E0B6E8C0E0C6E090E0D6E2B
:1000CC000D2EFED70C2EFCD70B2EFAD700000000FD
:1000DC00E2DF00522CE0286A296A800E2918006E93
:1000EC00800E005C02E1030E285C1EE2210E282427
:1000FC002A6E000E29202B6E8BDF2AC0E1FF2BC04D
:10010C00E2FF00C0E6FF070E0B6E8C0E0C6E090EA4
:10011C000D6E0D2EFED70C2EFCD70B2EFAD7000031
:10012C000000284A292AD9D7210E2C6E7ADF286A9A
:10013C00296A800E006E800E2918005C02E128509E
:10014C00030835E3210E2824016E000E2920026ECF
:10015C0015D08180070E0B6E8C0E0C6E090E0D6E79
:10016C000D2EFED70C2EFCD70B2EFAD7000000005C
:10017C001BD0819019D0818017D016D001C0E9FF17
:10018C0002C0EAFFEE50610AE4E001C0E9FF02C0E0
:10019C00EAFFEE50620AEDE001C0E9FF02C0EAFF9F
:1001AC00EE50630AE8E0E9D7284A292AC2D790D74B
:0201BC00FFD76B
:020000040030CA
:0E000000000C1F1EFF8381FF0FC00FE00F409A
:00000001FF
