:10000000A1EF01F00000000000EF00F00000000090
:0A0010000000000000000000F3D71C
:10001C00BDC100F0BEC101F0010E0101BD5F000EBB
:0E002C00BE5B0050011002E00000F2D712008F
:10003A000101BB6BBC6BBB6BBC6B800E9619006E6F
:10004A00800EBC19005C02E1BB51955D17E3B9C192
:10005A00BDF1BAC1BEF1DDDFBBC100F0BCC101F028
:10006A000036009001360050B725E96E0150B821DC
:10007A00EA6EEECF81FFBB4BBC2BDFD7816A120041
:10008A00AECF01F0ABA202D0AB98AB8801C000F0B2
:02009A00120052
:10009C00970E0101B76F010EB86FB5C1B9F1B6C1BA
:1000AC00BAF1C5DFB5C1BDF1B6C1BEF1B1DF630EAA
:1000BC00B76F010EB86FB5C1B9F1B6C1BAF1B7DF00
:1000CC00B5C1BDF1B6C1BEF1A3DF770EB76F010E9E
:1000DC00B86FB5C1B9F1B6C1BAF1A9DFB5C1BDF1FF
:1000EC00B6C1BEF195DF770EB76F010EB86FB5C113
:1000FC00B9F1B6C1BAF19BDFB5C1BDF1B6C1BEF164
:10010C0087DF810EB76F010EB86FB5C1B9F1B6C1FB
:10011C00BAF18DDFB5C1BDF1B6C1BEF179DF8B0E81
:10012C00B76F010EB86FB5C1B9F1B6C1BAF17FDFC7
:10013C00B5C1BDF1B6C1BEF16BDF6D0EB76F010E6F
:10014C00B86FB5C1B9F1B6C1BAF171DFB5C1BDF1C6
:10015C00B6C1BEF15DDF810EB76F010EB86FB5C1D0
:10016C00B9F1B6C1BAF163DFB5C1BDF1B6C1BEF12B
:10017C004FDF4F0EB76F010EB86FB5C1B9F1B6C1F5
:10018C00BAF155DFB5C1BDF1B6C1BEF141DF770E95
:10019C00B76F010EB86FB5C1B9F1B6C1BAF147DF8F
:1001AC00B5C1BDF1B6C1BEF133DF590EB76F010E4B
:1001BC00B86FB5C1B9F1B6C1BAF139DFB5C1BDF18E
:1001CC00B6C1BEF125DF8B0EB76F010EB86FB5C18E
:1001DC00B9F1B6C1BAF12BDFB5C1BDF1B6C1BEF1F3
:1001EC0017DF8B0EB76F010EB86FB5C1B9F1B6C181
:1001FC00BAF11DDFB5C1BDF1B6C1BEF109DF8B0E81
:10020C00B76F010EB86FB5C1B9F1B6C1BAF10FDF56
:10021C00B5C1BDF1B6C1BEF1FBDE8B0EB76F010EE1
:10022C00B86FB5C1B9F1B6C1BAF101DFB5C1BDF155
:10023C00B6C1BEF1EDDE8B0EB76F010EB86FB5C156
:10024C00B9F1B6C1BAF1F3DEB5C1BDF1B6C1BEF1BB
:10025C00DFDE8B0EB76F010EB86FB5C1B9F1B6C149
:10026C00BAF1E5DEB5C1BDF1B6C1BEF1D1DE8B0E82
:10027C00B76F010EB86FB5C1B9F1B6C1BAF1D7DE1F
:10028C00B5C1BDF1B6C1BEF1C3DE8B0EB76F010EA9
:10029C00B86FB5C1B9F1B6C1BAF1C9DEB5C1BDF11E
:1002AC00B6C1BEF1B5DE8B0EB76F010EB86FB5C11E
:1002BC00B9F1B6C1BAF1BBDEB5C1BDF1B6C1BEF183
:0402CC00A7DE120097
:1002D0000900F5CFE6FF0006FBE10106F9E1120097
:1002E000FF0E0101AB6FFF0EAC6FFF0EAD6FFF0E87
:1002F000AE6F8A0EAF6F000EB06F000EB16F000EC2
:10030000B26F380EA36F030EA46F000EA56F000E20
:10031000A66FFF0EA76FFF0EA86F000EA96F000E4D
:10032000AA6FAC8A900EAB6E948E949C9EAA03D05A
:08033000AECF00F0FBD7120074
:0A033800000E9EBA010E006E1200C6
:100342001DEC07F0FF0E926E936A816A949C948E64
:10035200B886B06A6A0EAF6EAC84C1DF220E0D6E33
:100362000D2EFED7E8DF00522CE0710E000185252C
:100372000101B36F000E000186210101B46F84DE1A
:10038200B3C1E1FFB4C1E2FF00C0E6FF010E00010C
:100392008525006E000E8621016E710E0024E16E2D
:1003A200000E0120E26EE66A854B862B800E8619CE
:1003B200006E800E005C02E1140E855D02E3856B27
:1003C200866B1E0E0101A16F000EA26F000E0001CE
:1003D200861902E1000E851907E1A1C1B5F1A2C19A
:1003E200B6F15BDE54EF06F000016F6B706B800EAE
:1003F2007019006E800E005C02E1140E6F5DD8B0C1
:1004020054EF06F0710E6F250101B36F000E00016B
:1004120070210101B46F49D2870EB76F000EB86F19
:10042200A1C1B9F1A2C1BAF107DEA1C1BDF1A2C158
:10043200BEF1F3DD4FEF06F0A50EB76F000EB86FF9
:10044200A1C1B9F1A2C1BAF1F7DDA1C1BDF1A2C149
:10045200BEF1E3DD4FEF06F0AF0EB76F000EB86FDF
:10046200A1C1B9F1A2C1BAF1E7DDA1C1BDF1A2C139
:10047200BEF1D3DD4FEF06F0590EB76F010EB86F24
:10048200A1C1B9F1A2C1BAF1D7DDA1C1BDF1A2C129
:10049200BEF1C3DD4FEF06F0630EB76F010EB86F0A
:1004A200A1C1B9F1A2C1BAF1C7DDA1C1BDF1A2C119
:1004B200BEF1B3DD4FEF06F0910EB76F000EB86FCD
:1004C200A1C1B9F1A2C1BAF1B7DDA1C1BDF1A2C109
:1004D200BEF1A3DD4FEF06F09B0EB76F000EB86FB3
:1004E200A1C1B9F1A2C1BAF1A7DDA1C1BDF1A2C1F9
:1004F200BEF193DD4FEF06F0970EB76F010EB86FA6
:10050200A1C1B9F1A2C1BAF197DDA1C1BDF1A2C1E8
:10051200BEF183DDC3D3290EB76F000EB86FA1C140
:10052200B9F1A2C1BAF188DDA1C1BDF1A2C1BEF18A
:1005320074DDB4D3330EB76F000EB86FA1C1B9F139
:10054200A2C1BAF179DDA1C1BDF1A2C1BEF165DDE1
:10055200A5D3150EB76F000EB86FA1C1B9F1A2C134
:10056200BAF16ADDA1C1BDF1A2C1BEF156DD96D3D9
:10057200770EB76F010EB86FA1C1B9F1A2C1BAF17E
:100582005BDDA1C1BDF1A2C1BEF147DD87D31F0E64
:10059200B76F000EB86FA1C1B9F1A2C1BAF14CDDBB
:1005A200A1C1BDF1A2C1BEF138DD78D33D0EB76F56
:1005B200000EB86FA1C1B9F1A2C1BAF13DDDA1C16E
:1005C200BDF1A2C1BEF129DD69D3810EB76F010E63
:1005D200B86FA1C1B9F1A2C1BAF12EDDA1C1BDF1BD
:1005E200A2C1BEF11ADD5AD35B0EB76F000EB86F0F
:1005F200A1C1B9F1A2C1BAF11FDDA1C1BDF1A2C170
:10060200BEF10BDD4BD3650EB76F000EB86FA1C103
:10061200B9F1A2C1BAF110DDA1C1BDF1A2C1BEF111
:10062200FCDC3CD34F0EB76F010EB86FA1C1B9F11C
:10063200A2C1BAF101DDA1C1BDF1A2C1BEF1EDDCE1
:100642002DD3470EB76F000EB86FA1C1B9F1A2C189
:10065200BAF1F2DCA1C1BDF1A2C1BEF1DEDC1ED352
:10066200510EB76F000EB86FA1C1B9F1A2C1BAF1B4
:10067200E3DCA1C1BDF1A2C1BEF1CFDC0FD3B90E43
:10068200B76F000EB86FA1C1B9F1A2C1BAF1D4DC43
:10069200A1C1BDF1A2C1BEF1C0DC00D3090EB76F8A
:1006A200010EB86FA1C1B9F1A2C1BAF1C5DCA1C1F5
:1006B200BDF1A2C1BEF1B1DCF1D26D0EB76F010E78
:1006C200B86FA1C1B9F1A2C1BAF1B6DCA1C1BDF145
:1006D200A2C1BEF1A2DCE2D2130EB76F010EB86F57
:1006E200A1C1B9F1A2C1BAF1A7DCA1C1BDF1A2C1F8
:1006F200BEF193DCD3D2F50EB76F000EB86FA1C175
:10070200B9F1A2C1BAF198DCA1C1BDF1A2C1BEF199
:1007120084DCC4D2FF0EB76F000EB86FA1C1B9F16D
:10072200A2C1BAF189DCA1C1BDF1A2C1BEF175DCE1
:10073200B5D28B0EB76F010EB86FA1C1B9F1A2C1CC
:10074200BAF17ADCA1C1BDF1A2C1BEF166DCA6D2CA
:100752001D0EB76F010EB86FA1C1B9F1A2C1BAF1F6
:100762006BDCA1C1BDF1A2C1BEF157DC97D23B0E39
:10077200B76F010EB86FA1C1B9F1A2C1BAF15CDCC9
:10078200A1C1BDF1A2C1BEF148DC88D2450EB76F4E
:10079200010EB86FA1C1B9F1A2C1BAF14DDCA1C17C
:1007A200BDF1A2C1BEF139DC79D2270EB76F010EBD
:1007B200B86FA1C1B9F1A2C1BAF13EDCA1C1BDF1CC
:1007C200A2C1BEF12ADC6AD2310EB76F010EB86F38
:1007D200A1C1B9F1A2C1BAF12FDCA1C1BDF1A2C17F
:1007E200BEF11BDC5BD2D70EB76F000EB86FA1C192
:1007F200B9F1A2C1BAF120DCA1C1BDF1A2C1BEF121
:100802000CDC4CD2E10EB76F000EB86FA1C1B9F18A
:10081200A2C1BAF111DCA1C1BDF1A2C1BEF10EECBF
:1008220000F03CD2C30EB76F000EB86FA1C1B9F190
:10083200A2C1BAF101DCA1C1BDF1A2C1BEF10EECAF
:1008420000F02CD2CD0EB76F000EB86FA1C1B9F176
:10085200A2C1BAF11DEC00F0A1C1BDF1A2C1BEF16D
:100862000EEC00F01BD2EB0EB76F000EB86FA1C1F9
:10087200B9F1A2C1BAF11DEC00F0A1C1BDF1A2C152
:10088200BEF10EEC00F00AD28B0EB76F010EB86FFC
:10089200A1C1B9F1A2C1BAF11DEC00F0A1C1BDF133
:1008A200A2C1BEF10EEC00F0F9D1B3C1E9FFB4C1AF
:1008B200EAFFEE50610AD8B4AFD5B3C1E9FFB4C1C3
:1008C200EAFFEE50410AD8B4A7D5B3C1E9FFB4C1DB
:1008D200EAFFEE50620AD8B4AFD5B3C1E9FFB4C1A2
:1008E200EAFFEE50420AD8B4A7D5B3C1E9FFB4C1BA
:1008F200EAFFEE50630AD8B4AFD5B3C1E9FFB4C181
:10090200EAFFEE50430AD8B4A7D5B3C1E9FFB4C198
:10091200EAFFEE50640AD8B4AFD5B3C1E9FFB4C15F
:10092200EAFFEE50440AD8B4A7D5B3C1E9FFB4C177
:10093200EAFFEE50650AD8B4AFD5B3C1E9FFB4C13E
:10094200EAFFEE50450AD8B4A7D5B3C1E9FFB4C156
:10095200EAFFEE50660AD8B4AFD5B3C1E9FFB4C11D
:10096200EAFFEE50460AD8B4A7D5B3C1E9FFB4C135
:10097200EAFFEE50670AD8B4AFD5B3C1E9FFB4C1FC
:10098200EAFFEE50470AD8B4A7D5B3C1E9FFB4C114
:10099200EAFFEE50680AD8B4AFD5B3C1E9FFB4C1DB
:1009A200EAFFEE50480AD8B4A7D5B3C1E9FFB4C1F3
:1009B200EAFFEE50690AD8B4AED5B3C1E9FFB4C1BB
:1009C200EAFFEE50490AD8B4A6D5B3C1E9FFB4C1D3
:1009D200EAFFEE506A0AD8B4ADD5B3C1E9FFB4C19B
:1009E200EAFFEE504A0AD8B4A5D5B3C1E9FFB4C1B3
:1009F200EAFFEE506B0AD8B4ACD5B3C1E9FFB4C17B
:100A0200EAFFEE504B0AD8B4A4D5B3C1E9FFB4C192
:100A1200EAFFEE506C0AD8B4ABD5B3C1E9FFB4C15A
:100A2200EAFFEE504C0AD8B4A3D5B3C1E9FFB4C172
:100A3200EAFFEE506D0AD8B4AAD5B3C1E9FFB4C13A
:100A4200EAFFEE504D0AD8B4A2D5B3C1E9FFB4C152
:100A5200EAFFEE506E0AD8B4A9D5B3C1E9FFB4C11A
:100A6200EAFFEE504E0AD8B4A1D5B3C1E9FFB4C132
:100A7200EAFFEE506F0AD8B4A8D5B3C1E9FFB4C1FA
:100A8200EAFFEE504F0AD8B4A0D5B3C1E9FFB4C112
:100A9200EAFFEE50700AD8B4A7D5B3C1E9FFB4C1DA
:100AA200EAFFEE50500AD8B49FD5B3C1E9FFB4C1F2
:100AB200EAFFEE50710AD8B4A6D5B3C1E9FFB4C1BA
:100AC200EAFFEE50510AD8B49ED5B3C1E9FFB4C1D2
:100AD200EAFFEE50720AD8B4A5D5B3C1E9FFB4C19A
:100AE200EAFFEE50520AD8B49DD5B3C1E9FFB4C1B2
:100AF200EAFFEE50730AD8B4A4D5B3C1E9FFB4C17A
:100B0200EAFFEE50530AD8B49CD5B3C1E9FFB4C191
:100B1200EAFFEE50740AD8B4A3D5B3C1E9FFB4C159
:100B2200EAFFEE50540AD8B49BD5B3C1E9FFB4C171
:100B3200EAFFEE50750AD8B4A2D5B3C1E9FFB4C139
:100B4200EAFFEE50550AD8B49AD5B3C1E9FFB4C151
:100B5200EAFFEE50760AD8B4A1D5B3C1E9FFB4C119
:100B6200EAFFEE50560AD8B499D5B3C1E9FFB4C131
:100B7200EAFFEE50770AD8B4A0D5B3C1E9FFB4C1F9
:100B8200EAFFEE50570AD8B498D5B3C1E9FFB4C111
:100B9200EAFFEE50780AD8B49FD5B3C1E9FFB4C1D9
:100BA200EAFFEE50580AD8B497D5B3C1E9FFB4C1F1
:100BB200EAFFEE50790AD8B49ED5B3C1E9FFB4C1B9
:100BC200EAFFEE50590AD8B496D5B3C1E9FFB4C1D1
:100BD200EAFFEE507A0AD8B49DD5B3C1E9FFB4C199
:100BE200EAFFEE505A0AD8B495D5B3C1E9FFB4C1B1
:100BF200EAFFEE50200AD8B49CD5B3C1E9FFB4C1D4
:100C0200EAFFEE50300AD8B4A3D5B3C1E9FFB4C1AC
:100C1200EAFFEE50310AD8B4AAD5B3C1E9FFB4C194
:100C2200EAFFEE50320AD8B4B1D5B3C1E9FFB4C17C
:100C3200EAFFEE50330AD8B4B8D5B3C1E9FFB4C164
:100C4200EAFFEE50340AD8B4BFD5B3C1E9FFB4C14C
:100C5200EAFFEE50350AD8B4C6D5B3C1E9FFB4C134
:100C6200EAFFEE50360AD8B4CDD5B3C1E9FFB4C11C
:100C7200EAFFEE50370AD8B4D5D5B3C1E9FFB4C103
:100C8200EAFFEE50380AD8B4DDD5B3C1E9FFB4C1EA
:100C9200EAFFEE50390AD8B4E6D5F6D500016F4B1B
:0C0CA200702BF8EF01F0B3EF01F0FFD76A
:100E3A0010EE15F08C0E006E020E016EAE0EF66EFE
:0E0E4A000C0EF76E000EF86E68EC01F0120050
:0A0CAE00FF0028004400820001004E
:0A0CB800FF00400020004000FF0094
:0A0CC20081008100FF008100810025
:0A0CCC0083008100FE00800080001C
:0A0CD600FF00600018000600FF0098
:0A0CE00061009100910091008E0068
:0A0CEA0080008000FF008000800001
:0A0CF400FF009000900090006000E7
:0A0CFE007C008200860086007F0063
:020D08000000E9
:100D0A0000000000000000000000000000000000D9
:040D1A0000000000D5
:020D1E000000D3
:0A0D20007F009000900090007F001B
:0A0D2A00FF009000900080008000A0
:0A0D34007E008100910091008E0006
:0A0D3E00FF009100910091006E008B
:0A0D48007E0081008100810081001F
:0A0D5200FE00010001000100FE0098
:0A0D5C00800083008C00B000C0008E
:0A0D66006E009100910091006E00F4
:0A0D7000FA009100910091008E003E
:0A0D7A000E002900910011000E0088
:0A0D840060009000900090007F00D6
:0A0D8E00800040003F00400080009C
:0A0D9800810083008900A1008100A2
:0A0DA200E0001C0001001C00E0004E
:0A0DAC008100660018006600810057
:0A0DB600FF00810081008100FF00B2
:0A0DC0008A009100B100D0008E00FF
:0A0DCA0008002800FF0008000800E0
:0A0DD40001004100FF0001000100D2
:0A0DDE004700890089009100210000
:0A0DE800FF009800940092006100E3
:0A0DF200FF008100810081007E00F7
:0A0DFC00FF009100910091009100AA
:0A0E0600FF00020004000200FF00DC
:0A0E1000FF000100010001000100D5
:0A0E1A007E008100810081007E004F
:0A0E240000000000000000000000C4
:020E2E000500BD
:0A0E3000FF00100010001000FF008A
:020000040030CA
:0E000000000C1F1EFF8381FF0FC00FE00F409A
:00000001FF
