:1000000057EF00F00000000000EF00F000000000DB
:0A0010000000000000000000F3D71C
:10001C00AECF01F0ABA202D0AB98AB8801C000F020
:02002C001200C0
:0E002E00ACB202D00000FCD78DC0ADFF1200B6
:10003C000900F5CFE6FF0006FBE10106F9E112002D
:10004C002E0E0001856F000E866F8D0E876F000ED1
:10005C00886F1C0E1D6E000E1E6E000E1F6E000EA5
:10006C00206EA40E156E000E166E000E176E000E8E
:10007C00186EFF0E196EFF0E1A6E000E1B6E000E20
:10008C001C6EAC8A900EAB6E948E949C9EAA03D080
:08009C00AECF00F0FBD712000B
:0A00A400000E9EBA010E006E12005D
:1000AE00936A816A190EAF6EAC84C9DF820E0C6E34
:1000BE00DD0E0D6E0D2EFED70C2EFCD700000000AF
:1000CE00EADF005220E00001896B8A6B800E8A19EC
:1000DE00006E800E005C02E1640E895D11E2210E5D
:1000EE0089258B6F000E8A218C6F91DF8BC0E1FF0B
:1000FE008CC0E2FF00C0E6FF0001894B8A2BE6D7D9
:0A010E00210E8D6F8DDFDCD7FFD7C7
:020000040030CA
:0E000000000E1F1EFF8381FF0FC00FE00F4098
:00000001FF
