:1000000048EF00F00000000000EF00F000000000EA
:0A0010000000000000000000F3D71C
:10001C00720E336E000E346E410E356E000E366E5F
:10002C00FF0E376EFF0E386E000E396E000E3A6EF4
:10003C00FF0E3B6EFF0E3C6E000E3D6E000E3E6ED4
:10004C00FF0E2F6EFF0E306E000E316E000E326EF4
:10005C00AC8A900EAB6E948E949C9EAA03D0AECFBD
:06006C0000F0FBD71200BA
:0E007200ACB202D00000FCD741C0ADFF1200BE
:100080000900F5CFE6FF0006FBE10106F9E11200E9
:100090008BEC00F0816A949C948E190EAF6EAC8448
:1000A000BDDF820E0C6EDD0E0D6E0D2EFED70C2EFA
:1000B000FCD7000000003F6A406A800E006E800E90
:1000C0004018005C02E13F501A0816E3150E3F2469
:1000D000E96E000E4020EA6EEECF41F0CADF820EDC
:1000E0000C6EDD0E0D6E0D2EFED70C2EFCD7000013
:0C00F00000003F4A402AE1D7DED7FFD7CE
:1001160010EE15F01A0E006E010E016EFC0EF66E54
:0E012600000EF76E000EF86E40EC00F01200B6
:1000FC009192939495969798999A9B9C9D9E9FA06C
:0A010C00A1A2A3A4A5A6A7A8A9AA72
:020000040030CA
:0E000000000E1F1EFF8381FF0FC00FE00F4098
:00000001FF
