:1000000048EF00F00000000000EF00F000000000EA
:0A0010000000000000000000F3D71C
:10001C00720E1A6E000E1B6E260E1C6E000E1D6EDE
:10002C00FF0E1E6EFF0E1F6E000E206E000E216E58
:10003C00FF0E226EFF0E236E000E246E000E256E38
:10004C00FF0E166EFF0E176E000E186E000E196E58
:10005C00AC8A900EAB6E948E949C9EAA03D0AECFBD
:06006C0000F0FBD71200BA
:0E007200ACB202D00000FCD726C0ADFF1200D9
:100080000900F5CFE6FF0006FBE10106F9E11200E9
:10009000660E156E816A949C948E330EAF6EAC849E
:1000A000BDDF060E0B6E130E0C6EAD0E0D6E0D2E1B
:1000B000FED70C2EFCD70B2EFAD70000000015C07F
:1000C00026F0D7DF060E0B6E130E0C6EAD0E0D6E06
:1000D0000D2EFED70C2EFCD70B2EFAD700000000F9
:0400E000EED7FFD781
:020000040030CA
:0E000000000E1F1EFF8381FF0FC00FE00F4098
:00000001FF
